:10000000122883160313871283128712831618157A
:100010003230990018128312981783168C168312A7
:100020001812080083132030840080018417800197
:100030008413840A841F1528831B212883171030FA
:1000400014288316031388018312880101200B13DF
:100050008B1783120313A0011816FF308316860036
:100060008B158312A201831203138C1E3A281A08DF
:10007000A1003328831203138C1EAA2883120313B2
:100080008C1E45281A08A1003E288312031321085C
:10009000233A031DAA28831203138C1E4B288312B4
:1000A00003131A08A1002108443A031DAA28831249
:1000B00003138C1E5728831203131A08A100A108EA
:1000C000031D652821088800AA2883120313210B29
:1000D0006C2821088800AA28831203132108023AF9
:1000E000031D752821088800AA28831203132108FC
:1000F000043A031D7E2821088800AA2883120313CE
:100100002108083A031D872821088800AA2883129D
:1001100003132108103A031D902821088800AA28FB
:10012000831203132108203A031D9928210888000F
:10013000AA28831203132108403A031DA22821088C
:100140008800AA28831203132108803A031DAA28D5
:10015000210888000B1CB2288312031388010608AB
:0C016000A2000B108312031318163A289B
:00000001FF
